:020000040800F2
:10000000A80900202902000825300008B52B0008A7
:1000100021300008490800081939000800000000D4
:100020000000000000000000000000007131000826
:100030004B09000800000000293000087331000857
:10004000430200084302000843020008430200087C
:10005000430200084302000843020008430200086C
:1000600043020008430200084D090008430200084B
:10007000430200084302000843020008430200084C
:10008000430200084302000843020008430200083C
:10009000430200084302000843020008430200082C
:1000A000430200084302000843020008430200081C
:1000B000430200084302000843020008430200080C
:1000C00043020008430200084302000843020008FC
:1000D00043020008F9380008430200084302000800
:1000E00043020008430200084302000843020008DC
:1000F00043020008430200084302000843020008CC
:1001000043020008430200084302000843020008BB
:1001100043020008430200084302000843020008AB
:1001200043020008430200084D0800085D0800086B
:10013000430200084302000843020008430200088B
:10014000430200084302000843020008430200087B
:10015000430200084302000843020008093900086E
:10016000430200084302000843020008430200085B
:100170004302000843020008430200080000000098
:10018000430200084302000800F002F800F03CF8C7
:100190000AA090E8000C82448344AAF10107DA45E2
:1001A00001D100F031F8AFF2090EBAE80F0013F0F8
:1001B000010F18BFFB1A43F001031847003C000071
:1001C000203C0000103A24BF78C878C1FAD8520702
:1001D00024BF30C830C144BF04680C6070470000C1
:1001E0000023002400250026103A28BF78C1FBD840
:1001F000520728BF30C148BF0B6070471FB503F0DE
:10020000C7FD1FBD10B510BD00F0CFF81146FFF7B8
:10021000F5FF03F055FD00F0EDF803B4FFF7F2FF32
:1002200003BC00F0F5F80000094880470948004782
:10023000FEE7FEE7FEE7FEE7FEE7FEE7FEE7FEE796
:10024000FEE7FEE704480549054A064B70470000F3
:100250003132000889010008A8030020A809002005
:10026000A8050020A805002053EA020C00F06980D0
:100270002DE9F04B4FF00006002B1FBFB3FA83F5BA
:1002800003FA05F424FA05F65E4012BF1643B2FAEB
:1002900082F502FA05F4C5F120051EBF22FA05FC1D
:1002A00044EA0C04203556EA044C4FEA144418BFC3
:1002B000641C4FF000084FF00009904271EB030CF2
:1002C00039D3002919BFB1FA81F701FA07F6B0FA5C
:1002D00080F700FA07F6C7F120071EBF20FA07FCD7
:1002E00046EA0C062037B6FBF4FCA7EB0507103FE7
:1002F00007F01F0BCBF120060CFA0BFB2CFA06F6CD
:1003000044BFB3460026202FA4BF5E464FF0000B2B
:100310005BEA060C08BF4FF0010B19EB0B09ABFBB6
:10032000027C48EB0608C01B06FB02CC0BFB03CC8F
:1003300071EB0C01C1E70B46024641464846BDE859
:10034000F08B13B54FF000004FF00001AFF30080C9
:10035000BDE81C4070474FF0000200B513469446BC
:100360009646203922BFA0E80C50A0E80C50B1F10D
:100370002001BFF4F7AF090728BFA0E80C5048BF21
:100380000CC05DF804EB890028BF40F8042B08BFBF
:10039000704748BF20F8022B11F0804F18BF00F8BB
:1003A000012B7047704770477047754600F02CF876
:1003B000AE4605006946534620F00700854618B052
:1003C00020B5FFF73FFFBDE820404FF000064FF09B
:1003D00000074FF000084FF0000B21F00701AC467A
:1003E000ACE8C009ACE8C009ACE8C009ACE8C00999
:1003F0008D46704710B50446AFF300802046BDE837
:100400001040FFF70ABF0000004870474403002077
:1004100001491820ABBEFEE726000200704700002D
:1004200055494A6822F440324A604A6843681A4390
:100430004A600268526822F4807203685A60026857
:100440005368026943EA022203685A6002685268EC
:1004500022F0407203685A600268526883681A4347
:1004600003685A600268926822F4006203689A6026
:1004700002689268C3681A4303689A603F4B826AB5
:100480009A4218D00268926822F0706203689A60FB
:1004900002689268836A1A4303689A6002689268E5
:1004A00022F0405203689A6002689268C36A1A4355
:1004B00003689A600BE00268926822F07062036839
:1004C0009A600268926822F0405203689A6002685B
:1004D000926822F0020203689A6002689368027EC2
:1004E00043EA420203689A602022125CA2B10268C9
:1004F000526842F4006203685A600268526822F44B
:10050000604203685A6002685368426A521E43EAB6
:10051000423203685A6005E00268526822F40062C1
:1005200003685A600268D26A22F470020368DA62D1
:100530000268D36A828B521E43EA02520368DA626F
:100540000268926822F4007203689A6002689368F5
:1005500090F8302043EA422203689A600268926869
:1005600022F4806203689A6002689368426943EAF1
:10057000822203689A607047002301400100000F47
:1005800010B501221021024801F0D4F810BD00007E
:100590000000024010B500221021024801F0CAF804
:1005A00010BD0000000002407047000010B501229D
:1005B0001146024801F0BEF810BD000000040240E0
:1005C00010B500220121024801F0B4F810BD00006E
:1005D00000040240704710B5044603E04FF47A70FF
:1005E00000F006F8201EA4F101018CB2F6D110BD76
:1005F00070B5034600BF00BF0020002200BF4FF0CF
:10060000E0267569A82603FB06F44FF0E026B169E1
:1006100010E04FF0E026B06988420BD0884202D249
:100620000E1A324402E02E1A0E4432440146A2420F
:1006300000D300E0EDE700BF70BD10B50024FFF768
:10064000B3FFFFF7C7FF03F0A3F9044303F034FA45
:100650000443204610BD00002DE9FC4105460E462E
:100660001746002000900190FFF794FF922000F0C1
:10067000D1F806226946122000F0ACF8FFF780FF9F
:100680009DF80100000200B29DF8001040EA01044C
:1006900000EE104AB8EEC00A4C48D0ED000A20EE39
:1006A000200A86ED000A9DF80300000200B29DF8C2
:1006B000021040EA010400EE104AB8EEC00A4348B6
:1006C000D0ED000A20EE200A86ED010A9DF8050013
:1006D000000200B29DF8041040EA010400EE104A46
:1006E000B8EEC00A3948D0ED000A20EE200A86EDA7
:1006F000020AFFF765FF08226946002000F06AF849
:10070000FFF754FF9DF800000F2838D19DF8030033
:10071000000200B29DF8021040EA010400EE104A07
:10072000B8EEC00A2A48D0ED000A20EE200A85ED76
:10073000000A9DF80500000200B29DF8041040EA8E
:10074000010400EE104AB8EEC00A2148D0ED000ABC
:1007500020EE200A85ED010A9DF80700000200B294
:100760009DF8061040EA010400EE104AB8EEC00AF7
:100770001748D0ED000A20EE200A85ED020AFFF7A7
:1007800009FFA22000F046F802226946222000F06C
:1007900021F8FFF7F5FE9DF80000C0009DF801105C
:1007A00040EA6114B4F5806F02DBA4F5006004B286
:1007B00000EE104AF8EEC00AB4EE001AB3EE070AD3
:1007C00000EE810A87ED000ABDE8FC8128000020C8
:1007D0002C00002070B506460C46154646F08000F9
:1007E00000F018F806E0552000F014F82070641CA2
:1007F000681EC5B2002DF6D170BD70B504460D4619
:1008000044F0800000F006F8552000F003F828704E
:1008100070BD000001B582B04FF47A70012301AAC7
:1008200002A90090024801F005FD9DF804000EBDEC
:100830005C01002070B505460C462846FFF7EAFF2C
:100840002046FFF7E7FF70BD00BFFEE710B5024886
:1008500000F0AAFC10BD0000B401002010B5024851
:1008600000F0A2FC10BD0000140200200146087830
:1008700010381823B0FBF3F20848805CC865032ADF
:1008800005D908686FF30900001D886503E0086852
:100890006FF309008865886D704700009A3D000875
:1008A000014600208A6A8B69CBB932B1012A0DD08A
:1008B000022A03D0032A10D10EE000BFCB6A03F056
:1008C0008073B3F1807F00D1012007E0CB6AB3F1E0
:1008D000C07F00D1012001E000E000BF34E08B695F
:1008E000B3F5005F1AD132B1012A07D0022A03D032
:1008F000032A11D10AE000BF01200EE0CB6A03F009
:100900008073B3F1807F00D1012006E0CB6AB3F1A0
:10091000C07F00D1012000E000BF15E032B1012A04
:1009200005D0022A04D0032A0CD103E000BF00BF87
:10093000012008E0CB6A03F08073B3F1807F00D11F
:10094000012000E000BF00BF7047704710B51020C5
:1009500000F0D6FD10BD72B600BFFEE738B5024606
:100960000020009000BF92F83C00012801D1022035
:1009700038BD012082F83C0000BF0868092816D95C
:100980001068C0680C780A3C04EB44050724AC40AE
:10099000A0431468E0600C780A3C04EB44048868C7
:1009A000A0401468E46820431468E06013E0106815
:1009B00000690C7804EB44050724AC40A04314689C
:1009C00020610C7804EB44048868A0401468246912
:1009D0002043146820614868072817D21068406BCC
:1009E0000C79641E04EB84051F24AC40A0431468FA
:1009F0006063088880B20C79641E04EB8404A04014
:100A00001468646B20431468606331E048680D2803
:100A100017D21068006B0C79E41F04EB84051F24C7
:100A2000AC40A04314682063088880B20C79E41FAE
:100A300004EB8404A0401468246B204314682063F2
:100A400016E01068C06A0C790D3C04EB84051F2485
:100A5000AC40A0431468E062088880B20C790D3C79
:100A600004EB8404A0401468E46A20431468E06244
:100A7000194B1A4C1068A04206D10868122803D1FD
:100A8000586840F480005860144C1068A0421CD193
:100A90000868102802D00868112816D1586840F458
:100AA00000005860086810280FD10D4800680D4CF0
:100AB000B0FBF4F000EB80004000009002E00098F2
:100AC000401E009000980028F9D100BF002082F855
:100AD0003C0000BF00BF4BE7002301400020014065
:100AE0002400002040420F0001460868C06C704797
:100AF00070B5044600250CB9012070BD1549A06AE7
:100B0000884200D000BF206C30B9204600F024F8A5
:100B10000020606484F83C00206C00F0100088B96C
:100B2000206C20F4885040F0020020642046FFF73B
:100B300077FC00206064206C20F0020040F001008F
:100B4000206400E0012500BF002084F83C0000BFC5
:100B50002846D2E70100000F10B586B004461421E4
:100B600001A8FFF7F8FB2349206888420FD100BF96
:100B7000002000902048006840F480701E49086002
:100B80000846006800F48070009000BF2FE01B4909
:100B9000206888422BD100BF0020009016480068D2
:100BA00040F48060144908600846006800F48060E2
:100BB000009000BF00BF00BF002000900E48143816
:100BC000006840F020000C491439086008460068AD
:100BD00000F02000009000BF00BF08150190032026
:100BE00002900020039001A9054800F097FC06B090
:100BF00010BD0000002001404438024000220140A6
:100C00000014024070B504460D4600262068806836
:100C100000F48060B0F5806F11D12068806800F426
:100C20008070B0F5807F0AD1206C40F020002064F5
:100C300000BF002084F83C0000BF012070BD00F020
:100C40007FFD064618E0681CB0B125B100F078FDC4
:100C5000801BA84210D92068006800F0020002281A
:100C60000AD0206C40F00400206400BF002084F80B
:100C70003C0000BF0320E1E72068006800F00200AC
:100C80000228E0D16FF0120021680860206C40F467
:100C9000007020642068806800F04050B8B9207E61
:100CA000A8B92068C06A00F4700020B1206880688C
:100CB00000F4806058B9206C20F480702064206CAF
:100CC00000F4805018B9206C40F00100206400202E
:100CD000B4E7000008B501460020009000BF91F87D
:100CE0003C00012801D1022008BD012081F83C0010
:100CF00000BF0868806800F00100A0B9086880683B
:100D000040F001000B6898603F4800683F4BB0FB23
:100D1000F3F000EB4000009002E00098401E0090CD
:100D200000980028F9D10868806800F001000028C8
:100D300060D0086C40F20163984340F4807008640E
:100D40000868406800F4806028B1086C20F4005006
:100D500040F480500864086C00F48050B0F5805F67
:100D600004D1486C20F00600486401E0002048648B
:100D700000BF002081F83C0000BF254A6FF0220030
:100D80000B681860506800F01F0018BB214B086802
:100D9000984213D0204B0868984204D1101D006877
:100DA00000F01F0050B11D4B086898422AD1184826
:100DB000001D006800F01F00102823D2086880681A
:100DC00000F04050F0B90868806840F080400B683F
:100DD000986017E00F4B0868984213D10868806844
:100DE00000F0405070B90868806840F080400B689F
:100DF000986007E0086C40F010000864486C40F010
:100E00000100486400206FE72400002040420F00EA
:100E10000023014000200140002101400022014048
:100E200070B504460CB9012070BD94F8200010B9CB
:100E3000204600F0AFF82068006840F0010021680B
:100E4000086000F07DFC05460DE000F079FC401BD9
:100E50000A2808D9606A40F400306062052084F8EE
:100E600020000120E0E72068406800F00100002831
:100E7000EBD02068006820F002002168086000F0D4
:100E80005FFC05460DE000F05BFC401B0A2808D91A
:100E9000606A40F400306062052084F82000012080
:100EA000C2E72068406800F002000028EBD1207EF5
:100EB000012806D12068006840F0800021680860A1
:100EC00005E02068006820F0800021680860607EEE
:100ED000012806D12068006840F0400021680860C1
:100EE00005E02068006820F0400021680860A07ECE
:100EF000012806D12068006840F0200021680860C1
:100F000005E02068006820F0200021680860E07E8D
:100F1000012806D12068006820F0100021680860D0
:100F200005E02068006840F0100021680860207F1C
:100F3000012806D12068006840F008002168086098
:100F400005E02068006820F0080021680860607FE4
:100F5000012806D12068006840F00400216808607C
:100F600005E02068006820F0040021680860D4E9EA
:100F70000201084321690843616908436168491E09
:100F800008432168C86100206062012084F82000C5
:100F9000002049E710B586B00446142101A8FFF7E8
:100FA000DAF946492068884239D145480068401C32
:100FB000434908600846006801280FD100BF00209F
:100FC00000904048006840F000703E4908600846C4
:100FD000006800F00070009000BF00BF00BF00205C
:100FE000009038481038006840F008003549103942
:100FF00008600846006800F00800009000BF00BFCD
:10100000032001900220029000200390032004900E
:101010000920059001A92C4800F080FA4CE02B49EA
:101020002068884248D100BF002000902548006811
:1010300040F08060234908600846006800F0806046
:10104000009000BF00BF1E480068401C1C4908609B
:101050000846006801280FD100BF00200090194801
:10106000006840F00070174908600846006800F00A
:101070000070009000BF00BF00BF0020009011482A
:101080001038006840F002000E4910390860084628
:10109000006800F00200009000BF00BF60200190D7
:1010A0000220029000200390032004900920059064
:1010B00001A9074800F032FA06B010BD00640040F4
:1010C0001400002040380240000C0240006800403C
:1010D0000004024070B50446A56D00F031FB0646E1
:1010E00094F83500022808D08020606500BF0020F9
:1010F00084F8340000BF012070BD2068006820F033
:101100001600216808602068406920F0800021688E
:101110004861206C08B9A06C28B12068006820F0F4
:101120000800216808602068006820F0010021683C
:10113000086010E000F004FB801B05280BD920207C
:101140006065032084F8350000BF002084F8340077
:1011500000BF0320D0E72068006800F001000028ED
:10116000E8D194F85C103F208840A860012084F802
:10117000350000BF002084F8340000BF00BFBBE78B
:10118000014691F83500022803D0802048650120EF
:101190007047052081F835000868006820F00100DC
:1011A0000A6810600020F3E7F8B5044600200090BC
:1011B0008C4800684FF41651B0FBF1F7A56D2E680E
:1011C00094F85C1008208840304098B1206800688E
:1011D00000F0040070B12068006820F0040021686D
:1011E000086094F85C1008208840A860606D40F0AA
:1011F0000100606594F85C1001208840304068B1BF
:101200002068406900F0800040B194F85C10012033
:101210008840A860606D40F00200606594F85C1042
:1012200004208840304068B12068006800F0020067
:1012300040B194F85C1004208840A860606D40F0D4
:101240000400606594F85C1010208840304078B34A
:101250002068006800F0080050B394F85C1010207B
:101260008840A8602068006800F4802080B1206871
:10127000006800F4002028B9206CC8B12046216C19
:10128000884715E0A06C98B12046A16C88470FE014
:101290002068006800F4807028B92068006820F099
:1012A000080021680860206C10B12046216C884736
:1012B00094F85C10202088403040002865D02068D9
:1012C000006800F0100000285FD094F85C10202027
:1012D0008840A86094F83500052828D12068006867
:1012E00020F01600216808602068406920F0800026
:1012F00021684861206C08B9A06C28B1206800689A
:1013000020F008002168086094F85C103F208840B5
:10131000A860012084F8350000BF002084F8340064
:1013200000BF206D10B12046216D8847F8BD2068B0
:10133000006800F4802080B12068006800F400207C
:1013400028B9606C10B12046616C88471DE0E06BE5
:10135000D8B12046E16B884717E02068006800F4A8
:10136000807068B92068006820F01000216808606B
:10137000012084F8350000BF002084F8340000BF4D
:10138000E06B10B12046E16B8847606D38B3606D4B
:1013900000F00100F0B1052084F8350020680068F5
:1013A00020F001002168086000BF0098401C0090F8
:1013B000B84200D905E02068006800F0010000286C
:1013C000F3D100BF012084F8350000BF002084F86D
:1013D000340000BFE06C10B12046E16C884700BFCC
:1013E000A4E70000240000202DE9F0410446002578
:1013F00000F0A6F9074614B90120BDE8F081606A43
:1014000000B100BF022084F8350000BF002084F83E
:10141000340000BF2068006820F0010021680860E7
:101420000AE000F08DF9C01B052805D92020606571
:10143000032084F83500E0E72068006800F0010030
:101440000028EED12068056821480540D4E9010153
:101450000843E16808432169084361690843A169B9
:101460000843E1690843216A08430543606A042888
:1014700003D1D4E90B0108430543206805602068C7
:10148000456925F00705606A0543606A04280DD1A7
:10149000A06A0543E06A48B12046FFF701FA28B187
:1014A00040206065012084F83500A6E7206845618A
:1014B0002046FFF7DBF9064694F85C103F20884091
:1014C000B06000206065012084F83500002094E7BA
:1014D0003F8010F070B5044600F032F9064625460C
:1014E000681C10B104480078054400BF00F028F9DA
:1014F000801BA842FAD370BD200000207047000076
:1015000010B5044604480068204020B10248046039
:101510002046FFF7F3FF10BD143C0140F8B502462A
:101520000B460025002400200021D6E0012606FA03
:1015300001F51E6806EA0504AC4274D11E7906F076
:101540000306012E04D01E7906F00306022E13D1E5
:1015500090684F000326BE40B0434F00DE68BE4097
:1015600030439060506801268E40B0431E79C6F328
:1015700000168E40304350601E7906F00306032E9D
:1015800009D0D0684F000326BE40B0434F009E688C
:10159000BE403043D0601E7906F00306022E13D100
:1015A000CF0802F1200656F827004E07F70E0F2647
:1015B000BE40B0434F07FF0E1E69BE403043CF0808
:1015C00002F1200646F8270010684F000326BE40AF
:1015D000B0431E7906F003064F00BE403043106052
:1015E0005E6806F44036002E76D000BF00260096D6
:1015F0003C4E366846F480463A4F3E603E4636687A
:1016000006F48046009600BF00BF374E8F0856F89C
:1016100027008E07370F0F26BE40B043334EB2422D
:1016200002D1002624E057E0314EB24201D101261A
:101630001EE0304EB24201D1022619E02E4EB242D7
:1016400001D1032614E02D4EB24201D104260FE051
:101650002B4EB24201D105260AE02A4EB24201D1F8
:10166000062605E0284EB24201D1072600E00826F2
:101670008F073F0FBE4030431B4E8F0846F82700B0
:10168000224E3068A0435E6806F4801606B12043FF
:101690001E4E3060361D3068A0435E6806F40016AA
:1016A00006B12043194E361D3060184E361F306883
:1016B000A0435E6806F4003606B12043134E361F81
:1016C0003060361F3068A0435E6806F4803606B18D
:1016D00020430E4E083E3060491C1029FFF426AF0F
:1016E000F8BD0000443802400838014000000240C4
:1016F0000004024000080240000C024000100240BA
:101700000014024000180240001C0240083C014046
:10171000024613690B400BB1012000E00020704726
:1017200010B5426921EA020302EA010443EA0443D4
:10173000836110BD0AB1816101E00B0483617047D0
:101740000148006870470000180000200348006846
:1017500003490978084401490860704718000020CF
:101760002000002010B50D48006840F400700B49BF
:1017700008600846006840F4806008600846006819
:1017800040F480700860032000F0A2F8002000F010
:1017900007F800F02BF8002010BD0000003C0240CC
:1017A00070B504460E4800784FF47A71B1FBF0F042
:1017B0000C490968B1FBF0F5284600F050FE08B16D
:1017C000012070BD102C07D200222146501E00F0CF
:1017D00041F80548046001E00120F2E70020F0E74D
:1017E00020000020240000201C00002008B500BFBD
:1017F000002000900E48006840F480400C490860CA
:101800000846006800F48040009000BF00BF00BFA1
:1018100000200090081F006840F08050091F0860F9
:101820000846006800F08050009000BF00BF08BD6F
:101830004438024001460846002809DB00F01F0337
:1018400001229A4043099B0003F1E023C3F80021E1
:1018500000BF70472DE9F05F80460D461646002711
:1018600002F05CF8074639462A46334601F0070085
:10187000C0F1070ABAF1040F02D94FF0040A01E0DF
:10188000C0F1070AD14600F1040ABAF1070F02D2EB
:101890004FF0000A01E0A0F1030AD4464FF0010A1C
:1018A0000AFA09FAAAF1010A0AEA020A0AFA0CFA81
:1018B0004FF0010B0BFA0CFBABF1010B0BEA030B26
:1018C0004AEA0B042146404602F030F8BDE8F09F9A
:1018D00000BF00F00702064B19684FF6FF031940DE
:1018E000044B0B4343EA0221014B196000BF7047D0
:1018F0000CED00E00000FA0570B504460D460CB989
:10190000012070BD5848006800F00700A84209D2C5
:1019100055490D700846006800F00700A84201D044
:101920000120EEE7207800F0020002281DD1207887
:1019300000F00400042805D14C48006840F4E05051
:101940004A490860207800F00800082805D1474877
:10195000006840F46040454908604448006820F051
:10196000F000A168084341490860207800F00100B8
:10197000A8B36068012807D13C4808380068C0F364
:101980004040B8B90120BCE76068022802D0606816
:10199000032807D1354808380068C0F3406048B9CB
:1019A0000120AEE7314808380068C0F3400008B9AC
:1019B0000120A6E72D48006820F003006168084375
:1019C0002A490860FFF7BCFE064609E0FFF7B8FEAB
:1019D000801B41F28831884202D9032091E707E059
:1019E0002248006800F00C006168B0EB810FEDD177
:1019F0001D48006800F00700A84209D91A490D7077
:101A00000846006800F00700A84201D0012078E7EE
:101A1000207800F00400042807D11448006820F45E
:101A2000E050E168084311490860207800F00800A0
:101A3000082808D10D48006820F46040216940EA78
:101A4000C1000A49086000F03FF808490968C1F37D
:101A50000311074A515CC8400649086006480068FF
:101A6000FFF79EFE00204CE7003C02400838024091
:101A7000A23D0008240000201C000020014800684E
:101A8000704700002400002000B5FFF7F7FF04496D
:101A90000968C1F38221034A515CC84000BD0000BF
:101AA00008380240B23D000800B5FFF7E7FF0449DF
:101AB0000968C1F34231034A515CC84000BD0000CF
:101AC00008380240B23D00082DE9F0470024002507
:101AD0000026A1462548006800F00C0020B104282B
:101AE00005D008283AD105E0DFF8849039E0DFF826
:101AF000849036E01D48001F006800F03F041B483A
:101B0000001F006800F4800078B11A481749091FC7
:101B10000968C1F38811A0FB017001462246002329
:101B20003846FEF7A1FB05460EE011480F49091F94
:101B30000968C1F38811A0FB017001462246002309
:101B40003846FEF791FB05460848001F0068C0F3C1
:101B50000140401C4600B5FBF6F902E0DFF81090AA
:101B600000BF00BF4846BDE8F087000008380240CB
:101B70000024F400001BB700F8B504460CB901209E
:101B8000F8BD207800F00100002874D0F948006802
:101B900000F00C0004280DD0F648006800F00C009E
:101BA000082813D1F348001F006800F48000B0F546
:101BB000800F0BD1EF4808380068C0F34040002880
:101BC00059D06068002856D10120D9E700BF60686D
:101BD000B0F5803F08D1E7480838006840F480300D
:101BE000E449083908601EE06068B0F5A02F0DD107
:101BF000E0480838006840F48020DE490839086071
:101C00000846006840F4803008600CE0D948083885
:101C1000006820F48030D749083908600846006819
:101C200020F48020086000BF606890B1FFF788FD55
:101C3000054606E0FFF784FD401B642801D9032018
:101C40009EE7CC4808380068C0F340400028F1D037
:101C500011E0FFF775FD054606E0FFF771FD401B3B
:101C6000642801D903208BE7C24808380068C0F314
:101C700040400028F1D1207800F0020002285FD116
:101C8000BC48006800F00C0058B1BA48006800F089
:101C90000C0008281CD1B748001F006800F4800021
:101CA000B0B9B44808380068C0F3400020B1E0681B
:101CB000012801D0012063E7AE480838006820F011
:101CC000F800216940EAC100AA490839086037E0F4
:101CD000E06800B30120A8490860FFF731FD054620
:101CE00006E0FFF72DFD401B022801D9032047E73E
:101CF000A04808380068C0F340000028F1D09D4893
:101D00000838006820F0F800216940EAC1009949CC
:101D10000839086014E0002097490860FFF710FDBB
:101D2000054606E0FFF70CFD401B022801D9032001
:101D300026E7904808380068C0F340000028F1D139
:101D4000207800F0080008282CD16069A8B1012093
:101D50008A490860FFF7F4FC054606E0FFF7F0FC4F
:101D6000401B022801D903200AE782486C30006832
:101D7000C0F340000028F1D014E000207F49086043
:101D8000FFF7DEFC054606E0FFF7DAFC401B022801
:101D900001D90320F4E677486C300068C0F34000B6
:101DA0000028F1D1207800F00400042870D1002729
:101DB00070483830006800F0805090B900BF0020B3
:101DC00000906C483830006840F0805069493831E4
:101DD00008600846006800F08050009000BF00BF17
:101DE00001276748006800F48070B0B96448006853
:101DF00040F4807062490860FFF7A2FC054606E0E7
:101E0000FFF79EFC401B022801D90320B8E65C487E
:101E1000006800F480700028F2D000BFA06801289C
:101E200008D154486830006840F0010051496831D9
:101E300008601DE0A06805280DD14E486830006894
:101E400040F004004B49683108600846006840F0E3
:101E5000010008600CE047486830006820F001008D
:101E60004449683108600846006820F004000860B2
:101E700000BFA068A8B1FFF763FC054609E0FFF7C3
:101E80005FFC401B41F28831884202D9032077E68B
:101E900026E0384868300068C0F340000028EED0E3
:101EA00013E0FFF74DFC054608E0FFF749FC401B37
:101EB00041F28831884201D9032061E62D4868301B
:101EC0000068C0F340000028EFD1012F07D1294856
:101ED0003830006820F0805026493831086000BF53
:101EE000A069002845D02348006800F00C000828AD
:101EF0005DD0A069022845D100201F490866FFF780
:101F00001FFC054606E0FFF71BFC401B022801D919
:101F1000032035E6174808380068C0F34060002801
:101F2000F1D1D4E907010843616A40EA8111012235
:101F3000A06AC2EB500041EA00412C20005D41EA5A
:101F400000600C49091F086001200B490866FFF773
:101F5000F7FB054606E0FFF7F3FB401B022801D91B
:101F600003200DE6034808380068C0F340600028ED
:101F7000F1D049E00838024000004742800E474255
:101F800000700040002021490866FFF7D9FB054694
:101F900006E0FFF7D5FB401B022801D90320EFE53F
:101FA0001B480068C0F340600028F2D12CE0A06913
:101FB000012800D1E4E51648001D0668A069012843
:101FC00020D006F48001E06981421BD106F03F0178
:101FD000206A814216D147F6C0703040616AB0EB8A
:101FE000811F0FD106F440310122A06AC2EB5000DC
:101FF000B1EB004F06D106F070612C20005DB1EB13
:10200000006F01D00120BBE50020B9E50000474288
:102010000038024010B504460CB9012010BD606ABA
:1020200038B96068B0F5827F00D105E00021E16138
:1020300002E00021216161610021A16294F8510058
:1020400028B9002084F85000204600F047F802200C
:1020500084F851002068006820F040002168086082
:10206000A08800F48270218901F404410843A18909
:1020700001F400610843217C01F002010843217D45
:1020800001F001010843218B01F400710843217F15
:1020900001F0380108432021095D01F08001084367
:1020A000218D01F400510843216808600421A069D2
:1020B00001EA104094F8241001F01001084321684F
:1020C00048602068C06920F400602168C861002071
:1020D0006065012084F8510000209FE710B586B0AC
:1020E0000446142101A8FEF736F94B4920688842BE
:1020F0007ED100BF002000904848006840F4805026
:10210000464908600846006800F48050009000BF0F
:1021100000BF00BF0020009040481438006840F025
:1021200002003E49143908600846006800F00200C9
:10213000009000BF00BF00BF00200090084600686C
:1021400040F0010008600846006800F001000090BF
:1021500000BF00BF182001900220029000200390D1
:10216000032004900520059001A92D48FFF7D6F91A
:102170008020019002200290002003900320049010
:102180000520059001A92748FFF7C8F926482749E7
:1021900008604FF0C0604860002124488160C16041
:1021A0004FF480610161002141618161C1614FF49F
:1021B0004031016200214162FFF716F908B1FEF7D4
:1021C000CAFB00BF1948E064846300BF164818309A
:1021D000174908604FF0C060486040211448816092
:1021E0000021C1604FF4806101610021416100E084
:1021F00010E08161C1614FF4003101620021416250
:10220000FFF7F2F808B1FEF7A6FB00BF0848A0648C
:10221000846300BF06B010BD003001404438024066
:10222000000402400000024040640240B40100206B
:10223000140200202DE9FF5F0446884691461D46A2
:102240000E9E012002900020019000BF94F85000E3
:10225000012803D1022004B0BDE8F09F012084F8DA
:10226000500000BFFFF76CFA074694F851B0606861
:102270000390AA46BBF1010F0BD00398B0F5827F03
:1022800004D1A06810B9BBF1040F02D00220019064
:10229000DBE0B8F1000F03D0B9F1000F00D015B9A1
:1022A00001200190D1E094F85100042802D00520CB
:1022B00084F8510000206065C4F83890E587A58750
:1022C000C4F83080E586A5862064606420680068D4
:1022D00000F04000402805D02068006840F0400031
:1022E00021680860E068B0F5006F4AD1606810B1FD
:1022F000BAF1010F09D1206B00882168C860206BFA
:10230000801C2063E08E401EE08633E020688068F9
:1023100000F00200022810D1E08E70B1029801286E
:102320000BD1206B00882168C860206B801C206363
:10233000E08E401EE086002002902068806800F059
:10234000010068B1E08F58B12068C068A16B0880B7
:10235000A06B801CA063E08F401EE08701200290EC
:10236000FFF7EEF9C01BB04204D3701C10B103207C
:1023700001906AE0E08E0028C8D1E08F0028C5D126
:102380004AE0606810B1BAF1010F09D1206B007802
:1023900021680873206B401C2063E08E401EE0869D
:1023A00034E02068806800F00200022810D1E08E3E
:1023B00070B1029801280BD1206B00782168087356
:1023C000206B401C2063E08E401EE08600200290BF
:1023D0002068806800F0010068B1E08F58B1206883
:1023E000C068A16B0870A06B401CA063E08F401E0A
:1023F000E08701200290FFF7A3F9C01BB04201D390
:10240000701C00B916B9032001901EE0E08E002870
:10241000C7D1E08F0028C4D13A463146204600F0AB
:1024200005FE20B101200190202060650DE0A0682C
:1024300050B900BF002000902068C068009020685C
:102440008068009000BF00BF00BF012084F85100E9
:1024500000BF002084F8500000BF0198FBE670B573
:1024600004462546681EB0F1807F01D301200FE0AD
:10247000681E4FF0E02148610F214FF0FF3001F05E
:1024800055FA00204FF0E021886107200861002004
:1024900070BD10B504460CB9012010BD94F83D0084
:1024A00028B9002084F83C00204600F025F80220DE
:1024B00084F83D00211D206800F0C4FE012084F84E
:1024C000460000BF84F83E0001213F200155402016
:1024D00001554120015500BF00BF012084F8420092
:1024E00043200155442001554520015500BF0120DE
:1024F00084F83D000020D0E708B50A4A01689142FF
:102500000FD100BF002100910749096841F4003153
:10251000054A11601146096801F40031009100BFBD
:1025200000BF08BD004401404438024010B586B0E9
:102530000446142101A8FDF70EFF124920688842C5
:102540001DD100BF002000900F48006840F020001F
:102550000D4908600846006800F02000009000BFA8
:1025600000BF402001900220029001200390022031
:1025700004900320059001A90448FEF7CFFF06B0A0
:1025800010BD0000004401403038024000140240F9
:102590002DE9F04104460D461646002700BF94F889
:1025A0003C00012802D10220BDE8F081012084F81E
:1025B0003C0000BF36B1042E1BD0082E31D00C2EAB
:1025C0005ED145E02946206800F0A8FE20688069B9
:1025D00040F00800216888612068806920F00400CC
:1025E00021688861206880692969084321688861B9
:1025F00048E02946206800F0C9FE2068806940F460
:102600000060216888612068806920F4806021680A
:10261000886120688069296940EA01202168886111
:1026200030E02946206800F0EFFE2068C06940F0E5
:1026300008002168C8612068C06920F00400216892
:10264000C8612068C069296908432168C86119E028
:102650002946206800F014FF2068C06940F400603B
:102660002168C8612068C06920F480602168C86161
:102670002068C069296940EA01202168C86101E039
:10268000012700BF00BF00BF002084F83C0000BF4E
:10269000384689E710B504460CB9012010BD94F8FE
:1026A0003D0028B9002084F83C00204600F025F8C1
:1026B000022084F83D00211D206800F0C3FD0120A8
:1026C00084F8460000BF84F83E0001213F200155F8
:1026D000402001554120015500BF00BF012084F872
:1026E000420043200155442001554520015500BFBB
:1026F000012084F83D000020D0E770477047704704
:102700002DE9F84F0446206805682068C6682068EF
:1027100047694FF00009CA4605F00F09B9F1000FEB
:102720000AD105F0200038B106F0200020B1204683
:1027300000F020FFBDE8F88FB9F1000F7CD007F062
:10274000010018B906F49070002875D005F001005A
:1027500030B106F4807018B1206C40F001002064A4
:1027600005F0040030B107F0010018B1206C40F012
:102770000200206405F0020030B107F0010018B13A
:10278000206C40F00400206405F0080048B106F019
:10279000200010B907F0010018B1206C40F00800CB
:1027A0002064206C002846D005F0200028B106F0F7
:1027B000200010B1204600F0DDFE20684069C0F323
:1027C000801A206C00F0080010B9BAF1000F2DD06B
:1027D000204600F089FE2068406900F04000402853
:1027E00020D100BF00BF2168143151E8001F21F043
:1027F00040002168143141E80002002AF3D100BFF3
:10280000A06B50B17548A16B0865A06BFEF7B8FCD2
:1028100088B1A06B016D88470DE02046FFF76FFF80
:1028200009E009E02046FFF76AFF04E02046FFF7D1
:1028300066FF002020647DE7206B012876D105F03B
:102840001000002872D006F010000028FAD000BF57
:102850000020009020680068009020684068009088
:1028600000BF00BF2068406900F0400040285ED1F2
:10287000A06B006840681FFA80F8B8F1000F54D0D0
:10288000A08D404551DDA4F82E80A06BC069B0F545
:10289000807F43D000BF00BF21680C3151E8001F8A
:1028A00021F4807021680C3141E80002002AF3D144
:1028B00000BF00BF00BF2168143151E8001F21F0A4
:1028C00001002168143141E80002002AF3D100BF61
:1028D00000BF00BF2168143151E8001F21F0400003
:1028E0002168143141E80002002AF3D100BF202002
:1028F00084F83E000020206300BF00BF21680C3137
:1029000051E8001F21F0100021680C3141E800025D
:10291000002AF3D100BFA06BFEF7DCFBA08DE28D97
:10292000801A81B22046FFF7E9FE03E740E0A08D60
:10293000E18D401A1FFA80F8E08DC0B3B8F1000FA6
:1029400035D000BF00BF21680C3151E8001F21F4D1
:10295000907021680C3141E80002002AF3D100BFD9
:1029600000BF00BF2168143151E8001F21F00100B1
:102970002168143141E80002002AF3D100BF202071
:1029800084F83E000020206300BF00BF21680C31A6
:1029900051E8001F21F0100021680C3141E80002CD
:1029A000002AF3D100BF41462046FFF7A7FEC1E64B
:1029B00005F0800030B106F0800018B1204600F02C
:1029C0006BFFB7E605F0400030B106F0400018B1EB
:1029D000204600F0BFFDADE600BFABE6D5340008F1
:1029E00010B504460CB9012010BDA06900B100E08B
:1029F00000BF94F83D0028B9002084F83C00204630
:102A000000F028F8242084F83D002068C06820F4F5
:102A100000502168C860204600F028FE2068006948
:102A200020F49040216808612068406920F02A0065
:102A3000216848612068C06840F400502168C8607F
:102A400000202064202084F83D0084F83E0000200F
:102A5000CAE7000010B586B00446142101A8FDF7AE
:102A60007AFC4D492068884256D100BF0020009072
:102A70004A48006840F0100048490860084600686D
:102A800000F01000009000BF00BF00BF00200090C9
:102A900042481438006840F0020040491439086088
:102AA0000846006800F00200009000BF00BF00BFB1
:102AB000002000900846006840F0010008600846C9
:102AC000006800F00100009000BF00BF802001906E
:102AD000022002900020039003200490072005901C
:102AE00001A92F48FEF71AFD4FF400700190022053
:102AF000029000200390032004900720059001A974
:102B00002848FEF70BFD002211462520FEF7A2FE05
:102B10002520FEF78FFE3CE023492068884238D10B
:102B200000BF002000901D48006840F020001B49B5
:102B300008600846006800F02000009000BF00BF59
:102B400000BF0020009015481438006840F0400095
:102B50001249143908600846006800F040000090EF
:102B600000BF00BF4FF4844001900220029000207B
:102B70000390032004900820059001A90B48FEF75C
:102B8000CDFC002211464720FEF764FE4720FEF7E9
:102B900051FE06B010BD0000001001404438024054
:102BA00000040240000002400014014000180240EE
:102BB0007047704700BFFEE71FB5002000900190EE
:102BC000029003901548164908604FF48030486021
:102BD0000021134881600161017680F82010C162F4
:102BE000104981620021C1600121C161002180F88A
:102BF000301001214161FDF77BFF08B1FDF7ABFE0D
:102C000011200090012001900020029069460448A4
:102C1000FDF7A4FE08B1FDF79EFE1FBD0020014098
:102C20007C0000200100000F1FB5002000900190E3
:102C3000029003901548164908604FF480304860B0
:102C40000021134881600161017680F82010C16283
:102C5000104981620021C1600121C161002180F819
:102C6000301001214161FDF743FF08B1FDF773FE0C
:102C7000082000900120019000200290694604483D
:102C8000FDF76CFE08B1FDF766FE1FBD0022014096
:102C9000C40000200100000F10B50E480E49086066
:102CA0000320486000210C488160C1604FF410216E
:102CB00001614FF400114161002101764176817676
:102CC000C17601774177FEF7ABF808B1FDF743FE17
:102CD00010BD0000006400400C01002010B50E483B
:102CE0000E4908600320486000210C488160C160E3
:102CF0004FF4102101614FF4001141610021017670
:102D000041768176C17601774177FEF789F808B17F
:102D1000FDF721FE10BD00000068004034010020D6
:102D200008B500BF002000900E48006840F4800005
:102D30000C4908600846006800F48000009000BF5D
:102D400000BF002205213A20FEF784FD3A20FEF75D
:102D500071FD002211463B20FEF77CFD3B20FEF773
:102D600069FD08BD3038024000B587B0142102A8C3
:102D7000FDF7F1FA00BF002001905B48006840F0C9
:102D80000200594908600846006800F002000190FE
:102D900000BF00BF00BF002001900846006840F05F
:102DA000400008600846006800F04000019000BF45
:102DB00000BF00BF002001900846006840F00100FD
:102DC00008600846006800F00100019000BF00BFE5
:102DD00000BF002001900846006840F0080008602D
:102DE0000846006800F00800019000BF00BF00BF67
:102DF000002001900846006840F080000860084606
:102E0000006800F08000019000BF00BF00BF0020FC
:102E100001900846006840F02000086008460068FD
:102E200000F02000019000BF00BF00BF0020019013
:102E30000846006840F0040008600846006800F09A
:102E40000400019000BF00BF00224FF4E05127486A
:102E5000FEF770FC012210212548FEF76BFC0122D1
:102E600011462448FEF766FC4FF4E0500290012022
:102E7000039000200490059002A91C48FEF74EFB29
:102E80000720029000200390049002A91A48FEF740
:102E900045FB102002900120039004900220059031
:102EA00002A91348FEF73AFB302002904FF4881035
:102EB00003900120049002A90F48FEF72FFB012088
:102EC0000290039004900220059002A90948FEF7A1
:102ED00025FB002211460A20FEF7BCFC0A20FEF763
:102EE000A9FC07B000BD000030380240001C0240C1
:102EF00000000240000402400008024010B50F48E4
:102F00000F4908604FF48270486000210C488160CE
:102F1000C1600221016101214161490281613821C1
:102F2000C16100210162416281620A21C162FFF731
:102F300071F808B1FDF70FFD10BD00000030014031
:102F40005C01002000B587B01C216846FDF703FA3C
:102F50001548164908600020486000211348816028
:102F600041F28731C160002101618161FFF791FA6F
:102F700008B1FDF7F0FC0D48FFF78CFB08B1FDF739
:102F8000EAFC602000900020019002900490002252
:102F900069460648FFF7FCFA08B1FDF7DCFC034878
:102FA000FFF7C4FA07B000BD0044014074020020DE
:102FB00010B50B480B4908604FF4E1304860002120
:102FC00008488160C16001610C214161002181617B
:102FD000C161FFF705FD08B1FDF7BDFC10BD0000A4
:102FE00000100140BC02002010B50B480B490860DE
:102FF0004FF4E1304860002108488160C160016100
:103000000C21416100218161C161FFF7E9FC08B138
:10301000FDF7A1FC10BD00000014014000030020DA
:1030200000BFFEE700BFFEE7704700007CB5044626
:103030000D461646164800681821B0FBF1F01549F8
:10304000B0FBF1F04FF47A71484301906068B0F53D
:10305000827F0DD12B46002280212046009600F071
:103060001BF898B1606D40F02000606503207CBDC6
:1030700000BF019800B908E00198401E0190206847
:103080008068C0F3C0100028F3D100BF0020EEE735
:103090002400002040420F002DE9F84F04460D4661
:1030A00090461E46DDF82890FEF74AFBA0EB09008B
:1030B000371AFEF745FB82462C480068C0F3CB3038
:1030C0007843009045E0701C002842D0FEF738FBA2
:1030D000A0EB0A00B84200D2A7BB2068406820F0ED
:1030E000E000216848606068B0F5827F0DD1A0687B
:1030F000B0F5004F03D0A068B0F5806F05D120680F
:10310000006820F0400021680860A06AB0F5005F08
:103110000DD100BF2068006820F4005021680860CD
:103120002068006840F400502168086000BF01205A
:1031300084F8510000BF002084F8500000BF032035
:10314000BDE8F88FFFE7009800B900270098401EFF
:103150000090206880682840A84201D1012000E04A
:1031600000204045AFD10020EAE700002400002005
:10317000704710B5FEF7EAFA10BD000000B593B035
:10318000302107A8FDF7E7F8142102A8FDF7E3F8BE
:1031900000BF002001902448006840F08050224980
:1031A00008600846006800F08050019000BF00BF32
:1031B00000BF002001901D48006840F480401B497A
:1031C00008600846006800F48040019000BF00BF1E
:1031D000012007900004089002200D9041050E91F7
:1031E00006210F91A8211091022111910421129121
:1031F00007A8FEF7C1FC08B1FDF7ADFB0F20029058
:1032000002200390002004904FF4A05005904FF44A
:1032100080500690052102A8FEF76EFB08B1FDF76D
:103220009AFB13B000BD000040380240007000401F
:103230000348006840F470000149086070470000CE
:1032400088ED00E010B50268294B98420ED0B0F12D
:10325000804F0BD0274B984208D0274B984205D07F
:10326000264B984202D0264B984203D122F070029E
:103270004B681A431E4B984220D0B0F1804F1DD0AE
:103280001C4B98421AD01C4B984217D01B4B9842AB
:1032900014D01B4B984211D01A4B98420ED01A4BA7
:1032A00098420BD0194B984208D0194B984205D040
:1032B000184B984202D0184B984203D122F4407226
:1032C000CB681A4322F080034C6943EA040202608F
:1032D0008B68C3620B688362054B984202D0084B2F
:1032E000984201D10B6903630123436110BD0000C3
:1032F000000001400004004000080040000C0040B5
:1033000000040140004001400044014000480140E9
:1033100000180040001C00400020004030B5056A45
:1033200025F001050562026A4368846924F070048F
:1033300024F003040D682C4322F002028D682A4316
:10334000104DA84200D103E00F4DA84206D100BFA6
:1033500022F00802CD682A4322F00402094DA84257
:1033600002D0094DA84207D123F4807323F40073DF
:103370004D692B438D692B43436084614D684563E0
:10338000026230BD000001400004014030B5056A12
:1033900025F010050562026A4368846924F4E0445C
:1033A00024F440740D6844EA052422F020028D685C
:1033B00042EA0512124DA84200D103E0114DA84285
:1033C00007D100BF22F08002CD6842EA051222F048
:1033D00040020B4DA84202D00A4DA84209D123F465
:1033E000806323F400634D6943EA85038D6943EAF2
:1033F0008503436084614D688563026230BD0000CF
:10340000000001400004014030B5056A25F48075D4
:103410000562026A4368C46924F0700424F003045E
:103420000D682C4322F400728D6842EA0522124D89
:10343000A84200D103E0114DA84207D100BF22F4F9
:103440000062CD6842EA052222F480620A4DA84259
:1034500002D00A4DA84209D123F4805323F400532B
:103460004D6943EA05138D6943EA05134360C4615E
:103470004D68C563026230BD000001400004014098
:1034800030B5056A25F480550562036A4468C2694F
:1034900022F4E04222F440720D6842EA052223F44D
:1034A00000538D6843EA0533084DA84202D0084D09
:1034B000A84204D124F480444D6944EA8514446050
:1034C000C2614D680564036230BD00000000014028
:1034D0000004014070B50546AC6B0020E085E08437
:1034E0002046FFF70CF970BD00BF00BF02680C3228
:1034F00052E8002F22F4907102680C3242E8001367
:10350000002BF3D100BF00BF00BF0268143252E8A5
:10351000002F22F001010268143242E80013002B50
:10352000F3D100BF016B01290ED100BF00BF0268BB
:103530000C3252E8002F22F0100102680C3242E8EF
:103540000013002BF3D100BF202180F83E10002192
:103550000163704710B504462068C06820F0400041
:103560002168C860202084F83D002046FFF721FB39
:10357000002010BDF8B5044694F83E00222873D10F
:10358000A068B0F5805F0CD1206950B90025A66A0B
:1035900020684068C0F308003080A06A801CA062E8
:1035A00015E0A56A0026A068B0F5805F03D0A0688A
:1035B00028B9206918B920684068287004E020689C
:1035C000406800F07F002870A06A401CA062E08D77
:1035D000401E80B2E085002844D12068C06820F0F9
:1035E00020002168C8602068C06820F480702168CD
:1035F000C8602068406920F00100216848612020EF
:1036000084F83E00206B012826D10020206300BFF3
:1036100000BF21680C3151E8001F21F01000216823
:103620000C3141E80002002AF3D100BF2068006895
:1036300000F0100010280AD100BF00200090206880
:103640000068009020684068009000BF00BFA18D16
:103650002046FFF753F802E02046FFF7A9FA0020C2
:10366000F8BD01E00020FBE70220F9E72DE9F84F63
:1036700004462068006920F44050E168084321684E
:1036800008612169A068084361690843E16908434A
:1036900000902068C06849F20C6188430099084393
:1036A0002168C8602068406920F44070A16908431F
:1036B0002168486176492068884203D075492068AE
:1036C000884203D1FEF7F0F9814602E0FEF7DCF90B
:1036D0008146E069B0F5004F6CD102206168A0FB23
:1036E000015003461920A9FB007001462A463846BE
:1036F000FCF7BAFD6421B0FBF1F04FEA001A02209A
:103700006168A0FB01510B461920A9FB00712A46F4
:103710003846FCF7A9FD834602206168A0FB0150F2
:1037200003461920A9FB00712A463846FCF79CFD88
:103730006421B0FBF1F000EBC00101EB0010ABEB3A
:103740008000322101EBC0006421B0FBF1F000F0F9
:10375000F8000AEB400A02206168A0FB0150034612
:103760001920A9FB007001462A463846FCF77CFD6B
:10377000834602206168A0FB015003461920A9FB83
:1037800000712A463846FCF76FFD6421B0FBF1F06A
:1037900000EBC00101EB0010ABEB8000322101EB2C
:1037A000C0006421B0FBF1F000F007005044216834
:1037B00088606AE004206168A0FB0150034619207C
:1037C000A9FB007001462A463846FCF74DFD8246AB
:1037D00004206168A0FB015003461920A9FB00707A
:1037E00001462A463846FCF73FFD6421B0FBF1F064
:1037F00000EBC00101EB0010AAEB8000322101EBCD
:1038000000106421B0FBF1F000F0F00A04206168C0
:10381000A0FB017003461920A9FB00513A46284637
:10382000FCF722FD6421B0FBF1F00AEB001A042042
:103830006168A0FB01510B461920A9FB00712A46C3
:103840003846FCF711FD834604206168A0FB015057
:1038500003461920A9FB007001462A463846FCF7AA
:1038600003FD6421B0FBF1F000EBC00101EB00109F
:10387000ABEB8000322101EB00106421B0FBF1F0D2
:1038800000F00F00504421688860BDE8F88F000008
:103890000010014000140140014691F83D0021282C
:1038A00028D18868B0F5805F0BD1086948B90A6AE9
:1038B0001088C0F308000B685860086A801C086212
:1038C00005E00B6A581C086218780B685860C88CB1
:1038D000401E80B2C88458B90868C06820F08000D3
:1038E0000B68D8600868C06840F040000B68D8607A
:1038F000002070470220FCE710B50248FEF700FFE9
:1039000010BD0000BC02002010B50248FEF7F8FE12
:1039100010BD00000003002000BFFEE70248006861
:10392000C0F30220704700000CED00E010B5002845
:1039300004DB0A07130E054A135406E00A07140EA7
:10394000034A00F00F031B1FD45410BD00E400E035
:1039500018ED00E070B505460C460C4804600120E7
:103960000A494860002088602846FCF7F7FF08B144
:10397000FCF7F1FF2846FDF7ADF90A212846FDF7CF
:1039800041F92846FDF7B0F880B270BD6C00002008
:1039900070B500250024FCF7FDFD8020FCF73AFF00
:1039A0005520FCF737FF5520FCF734FF0546FCF7A0
:1039B000E7FD9620FCF71CFEFCF7ECFD8020FCF7F1
:1039C00029FF5520FCF726FF5520FCF723FF05466D
:1039D000FCF7D6FD9620FCF70BFEFCF7DBFDB621CD
:1039E0007E20FCF727FFFCF7CBFD5020FCF7F3FD12
:1039F000FCF7D0FD8020FCF70DFF5520FCF70AFFF7
:103A00005520FCF707FF0546FCF7BAFD9620FCF7AA
:103A1000EFFDFCF7BFFD8020FCF7FCFE5520FCF716
:103A2000F9FE5520FCF7F6FE0546FCF7A9FD9620A9
:103A3000FCF7DEFD1E2D01D0FF2070BD002434E018
:103A4000FCF7A8FD04EB44021A4B1A44517804EB2E
:103A50004402985CFCF7EEFEFCF792FD9620FCF722
:103A6000C7FDFCF797FD04EB4401124A515C41F09D
:103A70008000FCF7CFFE5520FCF7CCFE5520FCF76C
:103A8000C9FE0546FCF77CFD9620FCF7B1FD04EB72
:103A90004400084908444078A84204D004EB44009C
:103AA00008448078C9E7601CC4B2062CC8DB00203B
:103AB000C3E700003000002038B50024002000904B
:103AC000FCF77EFD69460020FCF797FEFCF76EFDD3
:103AD0009620FCF78DFDFCF773FD69460020FCF78E
:103AE0008CFEFCF763FD9620FCF782FDFCF768FD79
:103AF000B6211420FCF79EFEFCF758FD5020FCF781
:103B00006AFDFCF75DFD69460020FCF776FEFCF7D8
:103B10004DFD9620FCF76CFDFCF752FD6946002038
:103B2000FCF76BFEFCF742FD9620FCF761FD9DF86B
:103B300000000F2801D0FF2038BD00242FE0FCF743
:103B40003FFD04EB4402184B1A44517804EB440245
:103B5000985CFCF76FFEFCF729FD9620FCF748FD0A
:103B6000FCF72EFD04EB44010F4A505C6946FCF75C
:103B700044FEFCF71BFD9620FCF73AFD04EB4400E5
:103B80000949084440789DF80010884205D004EBAC
:103B90004400054908448078CEE7601CC4B2062C76
:103BA000CDDB0020C8E700004200002010B52DED5D
:103BB000028B002008EE100A08210B48FFF7CAFE0E
:103BC00008EE100AB8EE480A0848D0ED000A20EEC8
:103BD000200ADFED070A20EE200AF0EE408AB0EE60
:103BE000680ABDEC028B10BDC40000200400002058
:103BF0005D74214170B501210948FDF789FD054635
:103C000002210748FDF784FD45EA400504210448E8
:103C1000FDF77EFD45EA8000C4B2204670BD00007D
:103C20000008024010B52DED028B002008EE900A2E
:103C300010210F48FFF78EFE08EE900AB8EE680AD2
:103C40000C48D0ED000A20EE200AB0EE408A9FED2D
:103C50000A0A78EE400A9FED091AB3EE090A00EE4F
:103C6000810AB0EE408AB0EE480ABDEC028B10BD6E
:103C70007C000020040000205C8F423F0000C8430D
:103C800070B50025002400BF06E011210948FFF7A8
:103C900061FE0444681CC5B2C82DF6DB00EE104A74
:103CA000B8EE400ADFED040A80EE801A034880ED8A
:103CB000001A70BD7C000020010070430400002049
:103CC000FDF750FDFFF75AFAFFF74EF8FFF728F817
:103CD000FEF7E2FFFFF702F8FFF76AF9FFF784F952
:103CE000FEF76AFFFEF7A0FFFFF708F9FFF72AF9D2
:103CF000FFF7C6FF00BFFCF7A0FC0028FBD137E0B0
:103D0000FFF778FF1B490870FFF750FF1A4880ED56
:103D1000000AFFF787FF194880ED000A164890ED6A
:103D2000000AF2EE080AB4EEE00AF1EE10FA0BD245
:103D300000224FF480611248FDF7FCFC4FF48051E3
:103D40000F48FDF7EDFC0AE000224FF480510C48CB
:103D5000FDF7F0FC4FF480610948FDF7E1FC094AEA
:103D600009490A48FCF778FC4FF4FA70FDF7B2FBFA
:103D7000C6E7000000000020080000200C00002022
:103D8000001C0240100000206000002054000020B1
:103D90004FF04070E1EE100A704700061016000662
:103DA00010160000000000000000010203040607D6
:103DB000080900000000010203040000DC3D0008C7
:103DC0000000002054000000C4010008303E00083C
:103DD0005400002054090000E00100080000000029
:103DE0006740533A0000000000000000000000009F
:103DF00000000000000000001000000001000000B2
:103E00000024F400E7416B3A58A08B3A7D04017C12
:103E1000000240AB034100055308065804070F0099
:103E20000810820911000A15800B16000C18010DEC
:040000050800018965
:00000001FF
